:040000001FEF00F0FE
:100008004082FACF01F0FBCF02F0F2AA0EEF00F027
:1000180010EF00F019EF00F0F2A415EF00F017EF61
:1000280000F019EF00F0E7EC04F002C0FBFF01C09C
:10003800FAFF40921100EFEF04F01450800B1D6E90
:1000480014501424236E13AE2CEF00F02EEF00F0A2
:100058002FEF00F023802350D8B435EF00F037EFAE
:1000680000F04AEF00F02328D8A43DEF00F03FEF5E
:1000780000F047EF00F0000E116E000E126E000E39
:10008800136E000E146E138E52EF00F0000E116EF8
:10009800000E126E000E136E000E146E1850800BB8
:1000A8001D1A18501824226E17AE5DEF00F05FEF8E
:1000B80000F060EF00F022802250D8B466EF00F024
:1000C80068EF00F07BEF00F02228D8A46EEF00F074
:1000D80070EF00F078EF00F0000E156E000E166E4F
:1000E800000E176E000E186E178E83EF00F0000ECC
:1000F800156E000E166E000E176E000E186E22504A
:10010800D8B489EF00F08BEF00F093EF00F02350A4
:10011800D8A491EF00F093EF00F09DEF00F0000EEF
:10012800116E000E126E000E136E000E146E35EF77
:1001380002F017501102F3CF28F0F4CF29F028501D
:100148001E6E1F6A206A216A2950246E256A266A53
:10015800276A16501202F3CF28F0F4CF29F028505E
:100168001E26000E1F222022212229502426000E9E
:1001780025222622272215501302F3CF28F0F4CF88
:1001880029F028501E26000E1F2220222122295045
:100198002426000E25222622272220C021F01FC057
:1001A80020F01EC01FF01E6A15501202F3CF28F06F
:1001B800F4CF29F028501E2629501F22000E202295
:1001C800000E212216501102F3CF28F0F4CF29F0A7
:1001D80028501E2629501F22000E2022000E212200
:1001E80020C021F01FC020F01EC01FF01E6A15504D
:1001F8001102F3CF28F0F4CF29F028501E262950F9
:100208001F22000E2022000E212217501202F3CFC7
:1002180028F0F4CF29F02850242629502522000E52
:100228002622000E272216501302F3CF28F0F4CF0F
:1002380029F02850242629502522000E2622000EB7
:10024800272217501302F3CF28F0F4CF29F02850B3
:10025800196E29501A6E1B6A1C6A1BC01CF01AC042
:100268001BF019C01AF0196A195024261A502522B1
:100278001B5026221C5027221EC019F01FC01AF03E
:1002880020C01BF021C01CF0190E50EF01F0D890CF
:100298001C321B321A321932E82E4BEF01F019507A
:1002A80024261A5025221B5026221C50272220C003
:1002B80021F01FC020F01EC01FF01E6A225023C06C
:1002C80019F01A6A1926000E1A22820E1924286EAD
:1002D800FF0E1A20296E86EF01F0D89024362536B5
:1002E8002636273621AE7BEF01F07DEF01F07EEF59
:1002F80001F02480D8901E361F3620362136280675
:10030800D8A0290626AE8BEF01F08DEF01F071EF32
:1003180001F0000E226E21AE94EF01F096EF01F08D
:10032800BAEF01F0FF0E1E14196EFF0E1F141A6E9D
:10033800FF0E20141B6E7F0E21141C6E19501A100C
:100348001B101C10D8B4ABEF01F0ADEF01F0B1EF0A
:1003580001F0010E226EBAEF01F024A0B6EF01F011
:10036800B8EF01F0BAEF01F0ADEF01F02250D8B4C8
:10037800C0EF01F0C2EF01F0E6EF01F0010E242614
:10038800000E25222622272227A0CDEF01F0CFEF4D
:1003980001F0E6EF01F024C019F025C01AF026C0DC
:1003A8001BF027C01CF01C341C321B321A321932C5
:1003B80019C024F01AC025F01BC026F01CC027F075
:1003C800284A292A29BEF1EF01F0295008E12828F6
:1003D800D8A0F1EF01F0F3EF01F0FDEF01F0000E0E
:1003E800246E000E256E800E266E7F0E276E2BEF74
:1003F80002F029BE0AEF02F0295006E12804D8B01D
:1004080008EF02F00AEF02F016EF02F0000E246E79
:10041800000E256E000E266E000E276E000E1D6E55
:100428002BEF02F028C023F0FF0E2416FF0E25162E
:100438007F0E2616000E271623A025EF02F027EFC1
:1004480002F028EF02F0268ED8902330276E1D5038
:10045800271224C011F025C012F026C013F027C0BF
:1004680014F012000B6E0B50D8B43DEF02F03FEFC2
:1004780002F061EF02F006BE46EF02F044EF02F030
:1004880061EF02F003C007F004C008F005C009F0EE
:1004980006C00AF0071E081E091E0A1E072A000EBB
:1004A800082209220A2207C00DF008C00EF009C070
:1004B8000FF00AC010F069EF02F003C00DF004C09D
:1004C8000EF005C00FF006C010F003500410051020
:1004D8000610D8A472EF02F074EF02F07EEF02F07B
:1004E800000E036E000E046E000E056E000E066E02
:1004F8000FEF03F0960E0C6E88EF02F00C2AD890DE
:1005080010320F320E320D32000E0D14076E000E2F
:100518000E14086E000E0F14096EFE0E10140A6EEB
:100528000750081009100A10D8A49DEF02F09FEF99
:1005380002F082EF02F0ADEF02F00C2A010E0D2658
:10054800000E0E220F221022D89010320F320E32D7
:100558000D32000E0D14076E000E0E14086E000EFC
:100568000F14096EFF0E10140A6E075008100910B8
:100578000A10D8A4C2EF02F0C4EF02F0A1EF02F013
:10058800CCEF02F00C06D8900D360E360F3610362A
:100598000FBED1EF02F0D3EF02F0DBEF02F0020E54
:1005A8000C60D9EF02F0DBEF02F0C6EF02F00CB0FE
:1005B800E0EF02F0E2EF02F0E3EF02F00F9ED890D6
:1005C8000C320CC007F0086A096A0A6A07C00AF008
:1005D800096A086A076A07500D1208500E12095076
:1005E8000F120A5010120B50D8B4FDEF02F0FFEFB3
:1005F80002F007EF03F006BE06EF03F004EF03F086
:1006080007EF03F0108E0DC003F00EC004F00FC00A
:1006180005F010C006F012002C342D34336E335020
:10062800D8A419EF03F01BEF03F025EF03F0000E39
:100638002A6E000E2B6E000E2C6E000E2D6E92EFA1
:1006480003F02AC02EF02BC02FF02CC030F02DC0A4
:1006580031F0200E35EF03F0D890313230322F329E
:100668002E32E82E30EF03F02E50326E2C8EFF0E15
:100678002A16FF0E2B16FF0E2C16000E2D16960EA0
:10068800335E33BE4CEF03F04AEF03F062EF03F042
:100698003350800A970FD8B054EF03F056EF03F0A9
:1006A80058EF03F01BEF03F0D8902D322C322B3289
:1006B8002A32333E58EF03F07AEF03F01F0E33640B
:1006C80068EF03F06AEF03F072EF03F01BEF03F03B
:1006D800D8902A362B362C362D3633063350D8A4EC
:1006E80078EF03F07AEF03F06CEF03F03250D8B4F0
:1006F80080EF03F082EF03F08AEF03F02D1E2C1E2B
:100708002B1E2A6C000E2B222C222D222AC02AF006
:100718002BC02BF02CC02CF02DC02DF01200366E03
:10072800190E36609AEF03F09CEF03F0A0EF03F088
:10073800899E8C9AD2EF03F0180E3664A6EF03F068
:10074800A8EF03F0B4EF03F0320E3660AEEF03F01B
:10075800B0EF03F0B4EF03F0898E8C9AD2EF03F078
:10076800310E3664BAEF03F0BCEF03F0C8EF03F0C4
:100778004B0E3660C2EF03F0C4EF03F0C8EF03F08E
:10078800899E8C8AD2EF03F04A0E3664CEEF03F0CE
:10079800D0EF03F0D2EF03F0898E8C8ACD0E156E60
:1007A800CC0E166E7A0E176E420E186E3650036E09
:1007B800046A056A066A000E36EC02F003C011F0FE
:1007C80004C012F005C013F006C014F021EC00F0CC
:1007D80011C02AF012C02BF013C02CF014C02DF059
:1007E80010EC03F02AC034F02BC035F00C0E342680
:1007F800000E352234C003F035C004F098EC04F044
:100808001200C8EC04F0F28EF28C938AD5EC04F056
:10081800000E386E000E396E81BA15EF04F017EF2E
:1008280004F02EEF04F03850D8A41DEF04F01FEFA9
:1008380004F037EF04F0010E386E3950D8B427EFC2
:1008480004F02AEF04F0010E2BEF04F0000E396ECD
:1008580037EF04F081AA33EF04F035EF04F037EFF7
:1008680004F0000E386E680E376EE40EE82EFED7E0
:10087800372EFCD700D03904D8A445EF04F047EF51
:1008880004F04DEF04F0640E93EC03F08B8A10EF44
:1008980004F0000E93EC03F08B9A10EF04F01FEFB6
:1008A80000F0000E8D6E200E8C6E800E896E200E6C
:1008B8008A6E000E8B6E070E966E7F0E926E936890
:1008C800DF0E946EDD0E956EDF0E0F013B6FD80EB6
:1008D8003A6F1F0E396F070E3C6F2F0E386F200EC0
:1008E800616EF19E629A000E036E000E046E02ECB9
:1008F80005F01200D59CD768E60ED66ED650D7CF35
:1009080005F0066A05C006F0056A05103A6E06503D
:100918003B6EF294F28A120E036E0A0E046EFDEC20
:1009280004F0B00ED56E120003C005F004C006F046
:10093800D89006320532D8900632053205500F019C
:10094800586F03C005F0030E0516053AF00E05169C
:100958005751CF0B0510576F12003C503D10D8B4BB
:10096800B8EF04F0BAEF04F0C7EF04F002D8C7EF0D
:1009780004F00500FA6E3C50FD6E3D50FE6EF850D6
:10098800FF6EFA501200120007EC05F055EC04F067
:10099800F6EC04F0D5EC04F0DFEC04F07EEC04F0A7
:1009A80012000C0E0F01576F000E586F000E596F92
:1009B800FC0E481712009F0EBB6E000EBC6E9E9276
:1009C800040EBA6E1200F2943B50D76E3AC0D6FFAE
:1009D800B1EC04F0120040904092000EF86E000155
:1009E80005EF04F0720ED36E040ED26E000E9B6EED
:1009F800120003C03CF004C03DF0120003C03EF0FA
:0C0A080004C03FF01200D09E120012004B
:020000040020DA
:08000000FFFFFFFFFFFFFFFF00
:020000040030CA
:0E000000FF281F3CFFBF85FF0FC00FE00F4021
:00000001FF
